:020000040800F2
:100000003004002015020008710200087102000887
:10001000710200087102000871020008000000006F
:100020000000000000000000000000007102000855
:10003000710200080000000071020008E5010008DC
:1000400071020008710200087102000871020008C4
:1000500071020008710200087102000871020008B4
:1000600071020008710200087102000871020008A4
:100070007102000871020008710200087102000894
:1000800071020008710200087102000800000000FF
:1000900000000000000000000000000071020008E5
:1000A0007102000871020008710200087102000864
:1000B0007102000871020008710200087102000854
:1000C0007102000871020008710200087102000844
:1000D0007102000871020008710200087102000834
:1000E000710200087102000871020008000000009F
:1000F0000000000000000000000000000000000000
:1001000000000000000000000000000000000000EF
:1001100000000000000000007102000871020008E9
:100120005FF808F180B483B000AF03463960FB711B
:1001300097F90730002B0BDA0D49FB7903F00F0319
:10014000043B3A68D2B21201D2B20B441A7609E0EB
:10015000084997F907303A68D2B21201D2B20B447B
:1001600083F800230C37BD465DF8047B704700BF61
:1001700000ED00E000E100E080B582B000AF786003
:100180007B68B3F1807F01D3012311E00A4A7B68C9
:1001900023F07F43013B53604FF0FF300F21FFF707
:1001A000C1FF054B00229A60034B07221A6000230F
:1001B00018460837BD4680BD10E000E080B500AFAE
:1001C000064B1B68064AA2FB03239B091846FFF750
:1001D000D3FF0346002B00D0FEE780BD00000020C7
:1001E000D34D621080B400AF064B1B68002B04D0C7
:1001F000044B1B68013B034A1360BD465DF8047B5A
:10020000704700BF2800002080B400AFBD465DF8F5
:10021000047B704780B582B000AF104B7B60104B01
:100220003B6007E03B681A1D3A607A68111D7960EF
:1002300012681A603B680B4A9342F3D30A480B4991
:100240004FF000028842B8BF40F8042BFADB00F000
:1002500013F800F0A5F90837BD4680BD84090008F1
:100260000000002028000020280000202C00002092
:1002700080B400AFFEE700BF80B500AF164A164B52
:100280001B6843F0010313601349134B5A68134B67
:1002900013404B60104A104B1B6823F0847323F407
:1002A000803313600C4A0C4B1B6823F480231360CB
:1002B000094A094B5B6823F4FE035360064B4FF475
:1002C0001F029A60044B0022DA6200F00BF8044B24
:1002D0004FF000629A6080BD001002400000FFF8FD
:1002E00000ED00E080B500AF00F002F880BD00BF77
:1002F00080B483B000AF00237B6000233B60304AB2
:100300002F4B1B6843F4803313602D4B1B6803F4A1
:1003100000333B607B6801337B603B68002B03D17B
:100320007B68B3F5A06FF0D1254B1B6803F4003355
:10033000002B02D001233B6001E000233B603B68BF
:10034000012B37D11E4A1E4B5B6853601C4A1C4B65
:100350005B6853601A4A1A4B5B685360184A184B23
:100360005B6823F47C135360154A154B5B6843F4B8
:1003700098135360124A124B1B6843F0807313604A
:1003800000BF0F4B1B6803F00073002BF9D00C4A21
:100390000B4B5B6823F003035360094A084B5B680F
:1003A00043F00203536000BF054B5B6803F00C038E
:1003B000082BF9D10C37BD465DF8047B704700BFB0
:1003C0000010024080B582B000AF1C20012100F077
:1003D000A3F9FF23BB800423FB710323BB713B1DE7
:1003E0000C48194600F01CF83F23BB801023FB711A
:1003F0003B1D0948194600F013F80723BB8004236E
:10040000FB713B1D0548194600F00AF80837BD4648
:1004100080BD00BF0008014000100140000C0140F9
:1004200080B489B000AF786039600023FB6100239D
:100430003B610023BB610023FB6000237B61002341
:10044000BB603B68DB7803F00F03FB613B68DB7844
:1004500003F01003002B05D03B689B781A46FB691C
:100460001343FB613B681B88DBB2002B44D07B68E5
:100470001B687B610023BB6138E0BB69012202FA83
:1004800003F3FB603B681B881A46FB6813403B6123
:100490003A69FB689A4226D1BB699B00FB60FB6806
:1004A0000F2202FA03F3BB60BB68DB437A69134097
:1004B0007B61FB68FA6902FA03F37A6913437B6193
:1004C0003B68DB78282B05D1BB6901229A407B6809
:1004D0005A6108E03B68DB78482B04D1BB690122F4
:1004E0009A407B681A61BB690133BB61BB69072B0A
:1004F000C3D97B687A691A603B681B88FF2B4AD98D
:100500007B685B687B610023BB613EE0BB690833AD
:100510001A4601239340FB603B681B881A46FB6820
:1005200013403B613A69FB689A422BD1BB699B003F
:10053000FB60FB680F2202FA03F3BB60BB68DB437E
:100540007A6913407B61FB68FA6902FA03F37A69FE
:1005500013437B613B68DB78282B07D1BB690833E9
:100560001A46012303FA02F27B685A613B68DB7882
:10057000482B07D1BB6908331A46012303FA02F25C
:100580007B681A61BB690133BB61BB69072BBDD9AD
:100590007B687A695A602437BD465DF8047B7047F2
:1005A00080B500AFFFF768FEFFF70CFF00F0ACF975
:1005B000FFF704FEFFF728FEFCE700BF80B489B018
:1005C00000AF78600023FB610023BB6100237B61E7
:1005D00000233B610023FB604A4B5B6803F00C0384
:1005E000FB61FB69042B07D0082B09D0002B2FD10E
:1005F0007B68454A1A602FE07B68434A1A602BE00B
:10060000404B5B6803F47013BB613E4B5B6803F4C3
:1006100080337B61BB699B0C0233BB617B69002B20
:1006200006D1BB69394A02FB03F27B681A6013E00A
:10063000344BDB6A03F00F030133FB60324AFB6883
:10064000B2FBF3F3BA6902FB03F27B681A6003E0C2
:100650007B682D4A1A6000BF2A4B5B6803F0F003E9
:10066000FB61FB691B09FB61294AFB6913441B7889
:10067000DBB23B617B681A683B69DA407B685A6091
:10068000204B5B6803F4E063FB61FB691B0AFB61C1
:100690001F4AFB6913441B78DBB23B617B685A68D5
:1006A0003B69DA407B689A60164B5B6803F46053E1
:1006B000FB61FB69DB0AFB61154AFB6913441B788C
:1006C000DBB23B617B685A683B69DA407B68DA6081
:1006D0000C4B5B6803F44043FB61FB699B0BFB61C4
:1006E0000C4AFB6913441B78DBB23B617B68DA6818
:1006F0003B69B2FBF3F27B681A612437BD465DF8B3
:10070000047B70470010024000127A0000093D008F
:10071000140000202400002080B483B000AF786073
:100720000B46FB70FB78002B06D00949084B9A69F1
:100730007B6813438B6106E00549054B9A697B682A
:10074000DB4313408B610C37BD465DF8047B70477B
:100750000010024080B58CB000AF78603960002393
:10076000FB620023BB6200237B6200233B62002309
:10077000FB617B68FB617B681B8A9BB2FB62FA6A48
:100780004CF6FF731340FB623B68DB881A46FB6A3A
:100790001343FB62FB6A9AB27B681A827B689B896F
:1007A0009BB2FB62FA6A4EF6F3131340FB623B689E
:1007B0009A883B681B8913439AB23B685B89134351
:1007C0009BB21A46FB6A1343FB62FB6A9AB27B68D0
:1007D0009A817B689B8A9BB2FB62FA6A4FF6FF4361
:1007E0001340FB623B689B891A46FB6A1343FB621A
:1007F000FB6A9AB27B689A8207F108031846FFF7F2
:10080000DDFEFB692E4A934202D17B69BB6201E0A7
:100810003B69BB627B689B899BB29BB21BB2002B7E
:100820000CDABA6A13469B0013449A001A443B68D8
:100830001B685B00B2FBF3F37B620BE0BA6A134602
:100840009B0013449A001A443B681B689B00B2FB50
:10085000F3F37B627B6A1B4AA2FB03235B091B0148
:10086000FB62FB6A1B09642202FB03F37A6AD31A58
:100870003B627B689B899BB29BB21BB2002B0CDA5C
:100880003B6ADB0032330F4AA2FB03235B0903F010
:100890000703FA6A1343FB620BE03B6A1B01323326
:1008A000084AA2FB03235B0903F00F03FA6A134310
:1008B000FB62FB6A9AB27B681A813037BD4680BD05
:1008C000003801401F85EB5180B483B000AF7860E1
:1008D0000B46FB70FB78002B08D07B689B899BB292
:1008E00043F400539AB27B689A8107E07B689B8946
:1008F0009BB223F400539AB27B689A810C37BD46B1
:100900005DF8047B704700BF80B586B000AF4FF440
:1009100080400121FFF700FF4FF48063BB82042376
:10092000FB750323BB7507F1140314481946FFF741
:1009300077FD4FF40073BB821823FB7507F1140396
:100940000E481946FFF76CFD4FF4E1337B6000233E
:100950003B8100237B810023BB8100233B820C234E
:10096000FB813B1D06481946FFF7F4FE04480121B0
:10097000FFF7AAFF1837BD4680BD00BF0008014041
:0409800000380140FA
:1009840000366E01000000000000000001020304B4
:100994000607080900000000010203040102030421
:0809A400060708090204060819
:0400000508000000EF
:00000001FF
