:020000040800F2
:10000000F804002025010008810100088101000892
:100010008101000881010008810100080000000042
:100020000000000000000000000000008101000846
:100030008101000800000000810100086909000832
:100040008101000881010008810100088101000888
:100050008101000881010008810100088101000878
:100060008101000881010008810100088101000868
:100070008101000881010008810100088101000858
:1000800081010008810100088101000800000000D2
:1000900000000000000000000000000081010008D6
:1000A0008101000881010008810100088101000828
:1000B0008101000881010008810100088101000818
:1000C0008101000881010008810100088101000808
:1000D00081010008810100088101000881010008F8
:1000E0008101000881010008810100080000000072
:1000F0000000000000000000000000000000000000
:1001000000000000000000000000000000000000EF
:1001100000000000000000008101000881010008CB
:100120005FF808F180B582B000AF104B7B60104BD8
:100130003B6007E03B681A1D3A607A68111D7960E0
:1001400012681A603B680B4A9342F3D30A480B4982
:100150004FF000028842B8BF40F8042BFADB00F0F1
:1001600013F800F0DDF90837BD4680BDF80D000832
:10017000000000202800002028000020F8000020B7
:1001800080B400AFFEE700BF80B500AF164A164B43
:100190001B6843F0010313601349134B5A68134B58
:1001A00013404B60104A104B1B6823F0847323F4F8
:1001B000803313600C4A0C4B1B6823F480231360BC
:1001C000094A094B5B6823F4FE035360064B4FF466
:1001D0001F029A60044B0022DA6200F00BF8044B15
:1001E0004FF000629A6080BD001002400000FFF8EE
:1001F00000ED00E080B500AF00F002F880BD00BF68
:1002000080B483B000AF00237B6000233B60304AA2
:100210002F4B1B6843F4803313602D4B1B6803F492
:1002200000333B607B6801337B603B68002B03D16C
:100230007B68B3F5A06FF0D1254B1B6803F4003346
:10024000002B02D001233B6001E000233B603B68B0
:10025000012B37D11E4A1E4B5B6853601C4A1C4B56
:100260005B6853601A4A1A4B5B685360184A184B14
:100270005B6823F47C135360154A154B5B6843F4A9
:1002800098135360124A124B1B6843F0807313603B
:1002900000BF0F4B1B6803F00073002BF9D00C4A12
:1002A0000B4B5B6823F003035360094A084B5B6800
:1002B00043F00203536000BF054B5B6803F00C037F
:1002C000082BF9D10C37BD465DF8047B704700BFA1
:1002D0000010024080B489B000AF7860396000231C
:1002E000FB6100233B610023BB610023FB60002313
:1002F0007B610023BB603B68DB7803F00F03FB618D
:100300003B68DB7803F01003002B05D03B689B783B
:100310001A46FB691343FB613B681B88DBB2002B69
:1003200044D07B681B687B610023BB6138E0BB69FC
:10033000012202FA03F3FB603B681B881A46FB6844
:1003400013403B613A69FB689A4226D1BB699B0026
:10035000FB60FB680F2202FA03F3BB60BB68DB4360
:100360007A6913407B61FB68FA6902FA03F37A69E0
:1003700013437B613B68DB78282B05D1BB690122E5
:100380009A407B685A6108E03B68DB78482B04D1CF
:10039000BB6901229A407B681A61BB690133BB616A
:1003A000BB69072BC3D97B687A691A603B681B88D5
:1003B000FF2B4AD97B685B687B610023BB613EE011
:1003C000BB6908331A4601239340FB603B681B88D6
:1003D0001A46FB6813403B613A69FB689A422BD18D
:1003E000BB699B00FB60FB680F2202FA03F3BB6052
:1003F000BB68DB437A6913407B61FB68FA6902FAE8
:1004000003F37A6913437B613B68DB78282B07D1C0
:10041000BB6908331A46012303FA02F27B685A616A
:100420003B68DB78482B07D1BB6908331A460123A8
:1004300003FA02F27B681A61BB690133BB61BB69D5
:10044000072BBDD97B687A695A602437BD465DF8B1
:10045000047B704780B485B000AF78600B467B802A
:100460000023FB737B689A687B881340002B02D0C3
:100470000123FB7301E00023FB73FB7B1846143759
:10048000BD465DF8047B704780B483B000AF03467F
:100490003960FB7197F90730002B0BDA0D49FB79B6
:1004A00003F00F03043B3A68D2B21201D2B20B44FC
:1004B0001A7609E0084997F907303A68D2B2120172
:1004C000D2B20B4483F800230C37BD465DF8047BA1
:1004D000704700BF00ED00E000E100E080B582B0B1
:1004E00000AF78607B68B3F1807F01D3012311E016
:1004F0000A4A7B6823F07F43013B53604FF0FF3093
:100500000F21FFF7C1FF054B00229A60034B072222
:100510001A60002318460837BD4680BD10E000E091
:1005200080B5CCB000AFFFF72FFE00F0E1F800F08F
:1005300003F96C4B1B686C4AA2FB03239B0918460A
:10054000FFF7CCFF0346002B00D0FEE7012387F81E
:100550002F3161E097F82F21394613469B00134451
:100560005B000B4401221A7097F82F21394613467D
:100570009B0013445B000B4401225A7097F82F2113
:10058000394613469B0013445B000B4401229A70CA
:1005900097F82F21394613469B0013445B000B4408
:1005A0004FF624229A8097F82F21394613469B0054
:1005B00013445B000B440022DA8097F82F21394660
:1005C00013469B0013445B000B441A68002010463E
:1005D0005A68002111461A89002362F30F031A4654
:1005E00000F05EF997F82F21394613469B0013441B
:1005F0005B000B441A68002010465A68002111461F
:100600001A89002362F30F031A4600F0D3F897F813
:100610002F31013387F82F3197F82F31012B99D9DA
:1006200000BF32480121FFF715FF0346002BF8D029
:10063000012387F82F314BE097F82F2139461346D5
:100640009B0013445B000B449B881BB240F2DB52BF
:10065000934218DC97F82F2197F82F1138460B4654
:100660009B000B445B0003449B889BB203F596738D
:100670009BB298B2394613469B0013445B000B446F
:1006800002469A800AE097F82F21394613469B00CC
:1006900013445B000B444FF624229A8097F82F21D5
:1006A000394613469B0013445B000B441A68002034
:1006B00010465A68002111461A89002362F30F037D
:1006C0001A4600F077F897F82F31013387F82F3169
:1006D00097F82F31012BAFD94FF47A7000F056F90B
:1006E0009EE700BF00000020D34D621000080140CB
:1006F00080B582B000AF1420012100F009FA4FF458
:100700004073BB801023FB710323BB713B1D084862
:100710001946FFF7DFFD0123BB800423FB713B1D5E
:1007200004481946FFF7D6FD0837BD4680BD00BF17
:10073000001001400008014080B586B000AF4FF4C2
:100740008040012100F0E4F94FF48063BB82042370
:10075000FB750323BB7507F1140314481946FFF713
:10076000B9FD4FF40073BB821823FB7507F1140326
:100770000E481946FFF7AEFD4FF4E1337B600023CE
:100780003B8100237B810023BB8100233B820C2320
:10079000FB813B1D0648194600F0D8F904480121A9
:1007A00000F08EFA1837BD4680BD00BF000801403A
:1007B0000038014080B586B000AF3B1D83E80700DC
:1007C00034480021C82200F0C9FA3B79012B00D03F
:1007D0005DE0304BFA221A702E4BAF225A707A79B4
:1007E0002C4B9A702B4B0022DA702A4B1E221A7166
:1007F000284B04225A71274B01229A713B89DAB2A5
:10080000244BDA713B899BB21B0A9BB2DAB2214BB3
:100810001A727B89DAB21F4B5A727B899BB21B0A10
:100820009BB2DAB21B4B9A721B4B00221A70022346
:10083000FB750BE0FB7D174AD25C174B1B785340CE
:10084000DAB2154B1A70FB7D0133FB75FB7D0A2B69
:10085000F0D9114B1A780F4BDA720023FB7512E0B6
:1008600000BF0E48802100F05DFA0346002BF8D04F
:10087000FB7D084AD35C9BB20848194600F040FA59
:10088000FB7D0133FB75FB7D0B2BE9D900BF1837CE
:10089000BD4680BD28000020F00000200038014047
:1008A00080B586B000AF3B1D83E807002B480021D0
:1008B000C82200F053FA3B79012B00D04AE0274BC5
:1008C000FA221A70254BAF225A707A79234B9A700C
:1008D000224B0022DA70214B24221A711F4B012275
:1008E0005A711E4B01229A711C4B0122DA711C4B6A
:1008F00000221A700223FB750BE0FB7D174AD25CC5
:10090000174B1B785340DAB2154B1A70FB7D01333D
:10091000FB75FB7D072BF0D9114B1A780F4B1A7220
:100920000023FB7512E000BF0E48802100F0FAF9A9
:100930000346002BF8D0FB7D084AD35C9BB20948E4
:10094000194600F0DDF9FB7D0133FB75FB7D082BBB
:10095000E9D900BF1837BD4680BD00BF2800002080
:10096000F00000200038014080B400AF064B1B6847
:10097000002B04D0044B1B68013B034A1360BD46A7
:100980005DF8047B704700BFF400002080B483B0A2
:1009900000AF7860064A7B68136000BF044B1B6899
:1009A000002BFBD10C37BD465DF8047B704700BFC0
:1009B000F400002080B489B000AF78600023FB61B0
:1009C0000023BB6100237B6100233B610023FB60AC
:1009D0004A4B5B6803F00C03FB61FB69042B07D0F7
:1009E000082B09D0002B2FD17B68454A1A602FE0D5
:1009F0007B68434A1A602BE0404B5B6803F470133A
:100A0000BB613E4B5B6803F480337B61BB699B0C2D
:100A10000233BB617B69002B06D1BB69394A02FBFB
:100A200003F27B681A6013E0344BDB6A03F00F03B8
:100A30000133FB60324AFB68B2FBF3F3BA6902FB95
:100A400003F27B681A6003E07B682D4A1A6000BFDE
:100A50002A4B5B6803F0F003FB61FB691B09FB6138
:100A6000294AFB6913441B78DBB23B617B681A6837
:100A70003B69DA407B685A60204B5B6803F4E063B3
:100A8000FB61FB691B0AFB611F4AFB6913441B786E
:100A9000DBB23B617B685A683B69DA407B689A60ED
:100AA000164B5B6803F46053FB61FB69DB0AFB6177
:100AB000154AFB6913441B78DBB23B617B685A68BB
:100AC0003B69DA407B68DA600C4B5B6803F44043B7
:100AD000FB61FB699B0BFB610C4AFB6913441B78B0
:100AE000DBB23B617B68DA683B69B2FBF3F27B689F
:100AF0001A612437BD465DF8047B70470010024040
:100B000000127A0000093D0014000020240000209B
:100B100080B483B000AF78600B46FB70FB78002B8D
:100B200006D00949084B9A697B6813438B6106E03C
:100B30000549054B9A697B68DB4313408B610C3791
:100B4000BD465DF8047B70470010024080B58CB054
:100B500000AF786039600023FB620023BB62002392
:100B60007B6200233B620023FB617B68FB617B6847
:100B70001B8A9BB2FB62FA6A4CF6FF731340FB625E
:100B80003B68DB881A46FB6A1343FB62FB6A9AB236
:100B90007B681A827B689B899BB2FB62FA6A4EF67D
:100BA000F3131340FB623B689A883B681B8913432D
:100BB0009AB23B685B8913439BB21A46FB6A1343A4
:100BC000FB62FB6A9AB27B689A817B689B8A9BB2C4
:100BD000FB62FA6A4FF6FF431340FB623B689B8956
:100BE0001A46FB6A1343FB62FB6A9AB27B689A82DD
:100BF00007F108031846FFF7DDFEFB692E4A934212
:100C000002D17B69BB6201E03B69BB627B689B8967
:100C10009BB29BB21BB2002B0CDABA6A13469B0044
:100C200013449A001A443B681B685B00B2FBF3F361
:100C30007B620BE0BA6A13469B0013449A001A4485
:100C40003B681B689B00B2FBF3F37B627B6A1B4A29
:100C5000A2FB03235B091B01FB62FB6A1B096422E5
:100C600002FB03F37A6AD31A3B627B689B899BB2CF
:100C70009BB21BB2002B0CDA3B6ADB0032330F4A0B
:100C8000A2FB03235B0903F00703FA6A1343FB6229
:100C90000BE03B6A1B013233084AA2FB03235B09CA
:100CA00003F00F03FA6A1343FB62FB6A9AB27B6894
:100CB0001A813037BD4680BD003801401F85EB5199
:100CC00080B483B000AF78600B46FB70FB78002BDC
:100CD00008D07B689B899BB243F400539AB27B682F
:100CE0009A8107E07B689B899BB223F400539AB2F8
:100CF0007B689A810C37BD465DF8047B704700BF66
:100D000080B483B000AF78600B467B807B88C3F3F0
:100D100008039AB27B689A800C37BD465DF8047B65
:100D2000704700BF80B485B000AF78600B467B8011
:100D30000023FB737B681B889AB27B8813409BB2AD
:100D4000002B02D00123FB7301E00023FB73FB7B2C
:100D500018461437BD465DF8047B704770B48407AD
:100D600046D0541E002A41D0CDB2034602E0621E96
:100D7000E4B3144603F8015B9A07F8D1032C2ED98B
:100D8000CDB245EA05250F2C45EA054519D9264679
:100D900003F11002103E0F2E42F8105C42F80C5C7A
:100DA00042F8085C42F8045C02F11002F2D8A4F1A7
:100DB000100222F00F0204F00F041032032C13442F
:100DC0000DD91E462246043A032A46F8045BFAD897
:100DD000221F22F003020432134404F003042CB156
:100DE000C9B21C4403F8011BA342FBD170BC70477D
:080DF00014460346C2E700BFF0
:100DF80000366E010000000000000000010203043C
:100E080006070809000000000102030401020304A8
:080E18000607080902040608A0
:0400000508000000EF
:00000001FF
